{
  "contractName": "Parameterizer",
  "abi": [
    {
      "constant": true,
      "inputs": [],
      "name": "PROCESSBY",
      "outputs": [
        {
          "name": "",
          "type": "uint256"
        }
      ],
      "payable": false,
      "stateMutability": "view",
      "type": "function"
    },
    {
      "constant": true,
      "inputs": [
        {
          "name": "",
          "type": "bytes32"
        }
      ],
      "name": "proposals",
      "outputs": [
        {
          "name": "appExpiry",
          "type": "uint256"
        },
        {
          "name": "challengeID",
          "type": "uint256"
        },
        {
          "name": "deposit",
          "type": "uint256"
        },
        {
          "name": "name",
          "type": "string"
        },
        {
          "name": "owner",
          "type": "address"
        },
        {
          "name": "processBy",
          "type": "uint256"
        },
        {
          "name": "value",
          "type": "uint256"
        }
      ],
      "payable": false,
      "stateMutability": "view",
      "type": "function"
    },
    {
      "constant": true,
      "inputs": [
        {
          "name": "",
          "type": "uint256"
        }
      ],
      "name": "challenges",
      "outputs": [
        {
          "name": "rewardPool",
          "type": "uint256"
        },
        {
          "name": "challenger",
          "type": "address"
        },
        {
          "name": "resolved",
          "type": "bool"
        },
        {
          "name": "stake",
          "type": "uint256"
        },
        {
          "name": "winningTokens",
          "type": "uint256"
        }
      ],
      "payable": false,
      "stateMutability": "view",
      "type": "function"
    },
    {
      "constant": true,
      "inputs": [
        {
          "name": "",
          "type": "bytes32"
        }
      ],
      "name": "params",
      "outputs": [
        {
          "name": "",
          "type": "uint256"
        }
      ],
      "payable": false,
      "stateMutability": "view",
      "type": "function"
    },
    {
      "constant": true,
      "inputs": [],
      "name": "token",
      "outputs": [
        {
          "name": "",
          "type": "address"
        }
      ],
      "payable": false,
      "stateMutability": "view",
      "type": "function"
    },
    {
      "constant": true,
      "inputs": [],
      "name": "voting",
      "outputs": [
        {
          "name": "",
          "type": "address"
        }
      ],
      "payable": false,
      "stateMutability": "view",
      "type": "function"
    },
    {
      "inputs": [
        {
          "name": "_tokenAddr",
          "type": "address"
        },
        {
          "name": "_plcrAddr",
          "type": "address"
        },
        {
          "name": "_minDeposit",
          "type": "uint256"
        },
        {
          "name": "_pMinDeposit",
          "type": "uint256"
        },
        {
          "name": "_applyStageLen",
          "type": "uint256"
        },
        {
          "name": "_pApplyStageLen",
          "type": "uint256"
        },
        {
          "name": "_commitStageLen",
          "type": "uint256"
        },
        {
          "name": "_pCommitStageLen",
          "type": "uint256"
        },
        {
          "name": "_revealStageLen",
          "type": "uint256"
        },
        {
          "name": "_pRevealStageLen",
          "type": "uint256"
        },
        {
          "name": "_dispensationPct",
          "type": "uint256"
        },
        {
          "name": "_pDispensationPct",
          "type": "uint256"
        },
        {
          "name": "_voteQuorum",
          "type": "uint256"
        },
        {
          "name": "_pVoteQuorum",
          "type": "uint256"
        }
      ],
      "payable": false,
      "stateMutability": "nonpayable",
      "type": "constructor"
    },
    {
      "anonymous": false,
      "inputs": [
        {
          "indexed": false,
          "name": "proposer",
          "type": "address"
        },
        {
          "indexed": false,
          "name": "name",
          "type": "string"
        },
        {
          "indexed": false,
          "name": "value",
          "type": "uint256"
        },
        {
          "indexed": false,
          "name": "propID",
          "type": "bytes32"
        }
      ],
      "name": "_ReparameterizationProposal",
      "type": "event"
    },
    {
      "anonymous": false,
      "inputs": [
        {
          "indexed": false,
          "name": "challenger",
          "type": "address"
        },
        {
          "indexed": false,
          "name": "propID",
          "type": "bytes32"
        },
        {
          "indexed": false,
          "name": "pollID",
          "type": "uint256"
        }
      ],
      "name": "_NewChallenge",
      "type": "event"
    },
    {
      "constant": false,
      "inputs": [
        {
          "name": "_name",
          "type": "string"
        },
        {
          "name": "_value",
          "type": "uint256"
        }
      ],
      "name": "proposeReparameterization",
      "outputs": [
        {
          "name": "",
          "type": "bytes32"
        }
      ],
      "payable": false,
      "stateMutability": "nonpayable",
      "type": "function"
    },
    {
      "constant": false,
      "inputs": [
        {
          "name": "_propID",
          "type": "bytes32"
        }
      ],
      "name": "challengeReparameterization",
      "outputs": [
        {
          "name": "challengeID",
          "type": "uint256"
        }
      ],
      "payable": false,
      "stateMutability": "nonpayable",
      "type": "function"
    },
    {
      "constant": false,
      "inputs": [
        {
          "name": "_propID",
          "type": "bytes32"
        }
      ],
      "name": "processProposal",
      "outputs": [],
      "payable": false,
      "stateMutability": "nonpayable",
      "type": "function"
    },
    {
      "constant": false,
      "inputs": [
        {
          "name": "_challengeID",
          "type": "uint256"
        },
        {
          "name": "_salt",
          "type": "uint256"
        }
      ],
      "name": "claimReward",
      "outputs": [],
      "payable": false,
      "stateMutability": "nonpayable",
      "type": "function"
    },
    {
      "constant": true,
      "inputs": [
        {
          "name": "_voter",
          "type": "address"
        },
        {
          "name": "_challengeID",
          "type": "uint256"
        },
        {
          "name": "_salt",
          "type": "uint256"
        }
      ],
      "name": "voterReward",
      "outputs": [
        {
          "name": "",
          "type": "uint256"
        }
      ],
      "payable": false,
      "stateMutability": "view",
      "type": "function"
    },
    {
      "constant": true,
      "inputs": [
        {
          "name": "_propID",
          "type": "bytes32"
        }
      ],
      "name": "canBeSet",
      "outputs": [
        {
          "name": "",
          "type": "bool"
        }
      ],
      "payable": false,
      "stateMutability": "view",
      "type": "function"
    },
    {
      "constant": true,
      "inputs": [
        {
          "name": "_propID",
          "type": "bytes32"
        }
      ],
      "name": "propExists",
      "outputs": [
        {
          "name": "",
          "type": "bool"
        }
      ],
      "payable": false,
      "stateMutability": "view",
      "type": "function"
    },
    {
      "constant": true,
      "inputs": [
        {
          "name": "_propID",
          "type": "bytes32"
        }
      ],
      "name": "challengeCanBeResolved",
      "outputs": [
        {
          "name": "",
          "type": "bool"
        }
      ],
      "payable": false,
      "stateMutability": "view",
      "type": "function"
    },
    {
      "constant": true,
      "inputs": [
        {
          "name": "_challengeID",
          "type": "uint256"
        }
      ],
      "name": "challengeWinnerReward",
      "outputs": [
        {
          "name": "",
          "type": "uint256"
        }
      ],
      "payable": false,
      "stateMutability": "view",
      "type": "function"
    },
    {
      "constant": true,
      "inputs": [
        {
          "name": "_name",
          "type": "string"
        }
      ],
      "name": "get",
      "outputs": [
        {
          "name": "value",
          "type": "uint256"
        }
      ],
      "payable": false,
      "stateMutability": "view",
      "type": "function"
    }
  ],
  "bytecode": "0x608060405262093a806005553480156200001857600080fd5b506040516101c08062002ff483398101806040528101908080519060200190929190805190602001909291908051906020019092919080519060200190929190805190602001909291908051906020019092919080519060200190929190805190602001909291908051906020019092919080519060200190929190805190602001909291908051906020019092919080519060200190929190805190602001909291905050508d600360006101000a81548173ffffffffffffffffffffffffffffffffffffffff021916908373ffffffffffffffffffffffffffffffffffffffff1602179055508c600460006101000a81548173ffffffffffffffffffffffffffffffffffffffff021916908373ffffffffffffffffffffffffffffffffffffffff160217905550620001916040805190810160405280600a81526020017f6d696e4465706f736974000000000000000000000000000000000000000000008152508d62000515640100000000026401000000009004565b620001e16040805190810160405280600b81526020017f704d696e4465706f7369740000000000000000000000000000000000000000008152508c62000515640100000000026401000000009004565b620002316040805190810160405280600d81526020017f6170706c7953746167654c656e000000000000000000000000000000000000008152508b62000515640100000000026401000000009004565b620002816040805190810160405280600e81526020017f704170706c7953746167654c656e0000000000000000000000000000000000008152508a62000515640100000000026401000000009004565b620002d16040805190810160405280600e81526020017f636f6d6d697453746167654c656e0000000000000000000000000000000000008152508962000515640100000000026401000000009004565b620003216040805190810160405280600f81526020017f70436f6d6d697453746167654c656e00000000000000000000000000000000008152508862000515640100000000026401000000009004565b620003716040805190810160405280600e81526020017f72657665616c53746167654c656e0000000000000000000000000000000000008152508762000515640100000000026401000000009004565b620003c16040805190810160405280600f81526020017f7052657665616c53746167654c656e00000000000000000000000000000000008152508662000515640100000000026401000000009004565b620004116040805190810160405280600f81526020017f64697370656e736174696f6e50637400000000000000000000000000000000008152508562000515640100000000026401000000009004565b620004616040805190810160405280601081526020017f7044697370656e736174696f6e506374000000000000000000000000000000008152508462000515640100000000026401000000009004565b620004b16040805190810160405280600a81526020017f766f746551756f72756d000000000000000000000000000000000000000000008152508362000515640100000000026401000000009004565b620005016040805190810160405280600b81526020017f70566f746551756f72756d0000000000000000000000000000000000000000008152508262000515640100000000026401000000009004565b50505050505050505050505050506200059c565b80600080846040518082805190602001908083835b6020831015156200055157805182526020820191506020810190506020830392506200052a565b6001836020036101000a038019825116818451168082178552505050505050905001915050604051809103902060001916600019168152602001908152602001600020819055505050565b612a4880620005ac6000396000f3006080604052600436106100e5576000357c0100000000000000000000000000000000000000000000000000000000900463ffffffff16806229514f146100ea57806330490e911461011557806332ed5b12146101465780633530099014610246578063504115521461028f578063693ec85e146102d057806377609a411461034d5780638240ae4b1461039657806386bb8f37146103db5780638f1d377614610412578063a7aad3db1461049f578063bade1c541461050a578063c51131fb14610599578063dc6ab527146105e2578063fc0c546a14610627578063fce1ccca1461067e575b600080fd5b3480156100f657600080fd5b506100ff6106d5565b6040518082815260200191505060405180910390f35b34801561012157600080fd5b5061014460048036038101908080356000191690602001909291905050506106db565b005b34801561015257600080fd5b50610175600480360381019080803560001916906020019092919050505061099f565b60405180888152602001878152602001868152602001806020018573ffffffffffffffffffffffffffffffffffffffff1673ffffffffffffffffffffffffffffffffffffffff168152602001848152602001838152602001828103825286818151815260200191508051906020019080838360005b838110156102055780820151818401526020810190506101ea565b50505050905090810190601f1680156102325780820380516001836020036101000a031916815260200191505b509850505050505050505060405180910390f35b34801561025257600080fd5b506102756004803603810190808035600019169060200190929190505050610a99565b604051808215151515815260200191505060405180910390f35b34801561029b57600080fd5b506102ba60048036038101908080359060200190929190505050610ac3565b6040518082815260200191505060405180910390f35b3480156102dc57600080fd5b50610337600480360381019080803590602001908201803590602001908080601f0160208091040260200160405190810160405280939291908181526020018383808284378201915050505050509192919290505050610bf3565b6040518082815260200191505060405180910390f35b34801561035957600080fd5b5061037c6004803603810190808035600019169060200190929190505050610c79565b604051808215151515815260200191505060405180910390f35b3480156103a257600080fd5b506103c56004803603810190808035600019169060200190929190505050610f8f565b6040518082815260200191505060405180910390f35b3480156103e757600080fd5b5061041060048036038101908080359060200190929190803590602001909291905050506115fb565b005b34801561041e57600080fd5b5061043d60048036038101908080359060200190929190505050611982565b604051808681526020018573ffffffffffffffffffffffffffffffffffffffff1673ffffffffffffffffffffffffffffffffffffffff168152602001841515151581526020018381526020018281526020019550505050505060405180910390f35b3480156104ab57600080fd5b506104f4600480360381019080803573ffffffffffffffffffffffffffffffffffffffff16906020019092919080359060200190929190803590602001909291905050506119e5565b6040518082815260200191505060405180910390f35b34801561051657600080fd5b5061057b600480360381019080803590602001908201803590602001908080601f016020809104026020016040519081016040528093929190818152602001838380828437820191505050505050919291929080359060200190929190505050611b41565b60405180826000191660001916815260200191505060405180910390f35b3480156105a557600080fd5b506105c86004803603810190808035600019169060200190929190505050612050565b604051808215151515815260200191505060405180910390f35b3480156105ee57600080fd5b5061061160048036038101908080356000191690602001909291905050506121db565b6040518082815260200191505060405180910390f35b34801561063357600080fd5b5061063c6121f3565b604051808273ffffffffffffffffffffffffffffffffffffffff1673ffffffffffffffffffffffffffffffffffffffff16815260200191505060405180910390f35b34801561068a57600080fd5b50610693612219565b604051808273ffffffffffffffffffffffffffffffffffffffff1673ffffffffffffffffffffffffffffffffffffffff16815260200191505060405180910390f35b60055481565b6000600260008360001916600019168152602001908152602001600020905061070382612050565b156107b7576107b2816003018054600181600116156101000203166002900480601f0160208091040260200160405190810160405280929190818152602001828054600181600116156101000203166002900480156107a35780601f10610778576101008083540402835291602001916107a3565b820191906000526020600020905b81548152906001019060200180831161078657829003601f168201915b5050505050826006015461223f565b61091e565b6107c082610c79565b156107d3576107ce826122c4565b61091d565b806005015442111561091757600360009054906101000a900473ffffffffffffffffffffffffffffffffffffffff1673ffffffffffffffffffffffffffffffffffffffff1663a9059cbb8260040160009054906101000a900473ffffffffffffffffffffffffffffffffffffffff1683600201546040518363ffffffff167c0100000000000000000000000000000000000000000000000000000000028152600401808373ffffffffffffffffffffffffffffffffffffffff1673ffffffffffffffffffffffffffffffffffffffff16815260200182815260200192505050602060405180830381600087803b1580156108cc57600080fd5b505af11580156108e0573d6000803e3d6000fd5b505050506040513d60208110156108f657600080fd5b8101908080519060200190929190505050151561091257600080fd5b61091c565b600080fd5b5b5b600260008360001916600019168152602001908152602001600020600080820160009055600182016000905560028201600090556003820160006109629190612893565b6004820160006101000a81549073ffffffffffffffffffffffffffffffffffffffff02191690556005820160009055600682016000905550505050565b6002602052806000526040600020600091509050806000015490806001015490806002015490806003018054600181600116156101000203166002900480601f016020809104026020016040519081016040528092919081815260200182805460018160011615610100020316600290048015610a5d5780601f10610a3257610100808354040283529160200191610a5d565b820191906000526020600020905b815481529060010190602001808311610a4057829003601f168201915b5050505050908060040160009054906101000a900473ffffffffffffffffffffffffffffffffffffffff16908060050154908060060154905087565b60008060026000846000191660001916815260200190815260200160002060050154119050919050565b600080600460009054906101000a900473ffffffffffffffffffffffffffffffffffffffff1673ffffffffffffffffffffffffffffffffffffffff1663053e71a6846040518263ffffffff167c010000000000000000000000000000000000000000000000000000000002815260040180828152602001915050602060405180830381600087803b158015610b5757600080fd5b505af1158015610b6b573d6000803e3d6000fd5b505050506040513d6020811015610b8157600080fd5b81019080805190602001909291905050501415610bb95760016000838152602001908152602001600020600201546002029050610bee565b600160008381526020019081526020016000206000015460016000848152602001908152602001600020600201546002020390505b919050565b6000806000836040518082805190602001908083835b602083101515610c2e5780518252602082019150602081019050602083039250610c09565b6001836020036101000a038019825116818451168082178552505050505050905001915050604051809103902060001916600019168152602001908152602001600020549050919050565b6000610c836128db565b610c8b61292f565b60026000856000191660001916815260200190815260200160002060e06040519081016040529081600082015481526020016001820154815260200160028201548152602001600382018054600181600116156101000203166002900480601f016020809104026020016040519081016040528092919081815260200182805460018160011615610100020316600290048015610d695780601f10610d3e57610100808354040283529160200191610d69565b820191906000526020600020905b815481529060010190602001808311610d4c57829003601f168201915b505050505081526020016004820160009054906101000a900473ffffffffffffffffffffffffffffffffffffffff1673ffffffffffffffffffffffffffffffffffffffff1673ffffffffffffffffffffffffffffffffffffffff168152602001600582015481526020016006820154815250509150600160008360200151815260200190815260200160002060a06040519081016040529081600082015481526020016001820160009054906101000a900473ffffffffffffffffffffffffffffffffffffffff1673ffffffffffffffffffffffffffffffffffffffff1673ffffffffffffffffffffffffffffffffffffffff1681526020016001820160149054906101000a900460ff1615151515815260200160028201548152602001600382015481525050905060008260200151118015610eae57506000151581604001511515145b8015610f865750600460009054906101000a900473ffffffffffffffffffffffffffffffffffffffff1673ffffffffffffffffffffffffffffffffffffffff1663ee68483083602001516040518263ffffffff167c010000000000000000000000000000000000000000000000000000000002815260040180828152602001915050602060405180830381600087803b158015610f4a57600080fd5b505af1158015610f5e573d6000803e3d6000fd5b505050506040513d6020811015610f7457600080fd5b81019080805190602001909291905050505b92505050919050565b6000610f996128db565b60008060026000866000191660001916815260200190815260200160002060e06040519081016040529081600082015481526020016001820154815260200160028201548152602001600382018054600181600116156101000203166002900480601f01602080910402602001604051908101604052809291908181526020018280546001816001161561010002031660029004801561107a5780601f1061104f5761010080835404028352916020019161107a565b820191906000526020600020905b81548152906001019060200180831161105d57829003601f168201915b505050505081526020016004820160009054906101000a900473ffffffffffffffffffffffffffffffffffffffff1673ffffffffffffffffffffffffffffffffffffffff1673ffffffffffffffffffffffffffffffffffffffff16815260200160058201548152602001600682015481525050925061112d6040805190810160405280600b81526020017f704d696e4465706f736974000000000000000000000000000000000000000000815250610bf3565b915061113885610a99565b8015611148575060008360200151145b151561115357600080fd5b600360009054906101000a900473ffffffffffffffffffffffffffffffffffffffff1673ffffffffffffffffffffffffffffffffffffffff166323b872dd3330856040518463ffffffff167c0100000000000000000000000000000000000000000000000000000000028152600401808473ffffffffffffffffffffffffffffffffffffffff1673ffffffffffffffffffffffffffffffffffffffff1681526020018373ffffffffffffffffffffffffffffffffffffffff1673ffffffffffffffffffffffffffffffffffffffff1681526020018281526020019350505050602060405180830381600087803b15801561124c57600080fd5b505af1158015611260573d6000803e3d6000fd5b505050506040513d602081101561127657600080fd5b8101908080519060200190929190505050151561129257600080fd5b600460009054906101000a900473ffffffffffffffffffffffffffffffffffffffff1673ffffffffffffffffffffffffffffffffffffffff166332ed3d6061130e6040805190810160405280600b81526020017f70566f746551756f72756d000000000000000000000000000000000000000000815250610bf3565b61134c6040805190810160405280600f81526020017f70436f6d6d697453746167654c656e0000000000000000000000000000000000815250610bf3565b61138a6040805190810160405280600f81526020017f7052657665616c53746167654c656e0000000000000000000000000000000000815250610bf3565b6040518463ffffffff167c0100000000000000000000000000000000000000000000000000000000028152600401808481526020018381526020018281526020019350505050602060405180830381600087803b1580156113ea57600080fd5b505af11580156113fe573d6000803e3d6000fd5b505050506040513d602081101561141457600080fd5b8101908080519060200190929190505050905060a0604051908101604052806064846114746040805190810160405280601081526020017f7044697370656e736174696f6e50637400000000000000000000000000000000815250610bf3565b6064030281151561148157fe5b0481526020013373ffffffffffffffffffffffffffffffffffffffff1681526020016000151581526020018381526020016000815250600160008381526020019081526020016000206000820151816000015560208201518160010160006101000a81548173ffffffffffffffffffffffffffffffffffffffff021916908373ffffffffffffffffffffffffffffffffffffffff16021790555060408201518160010160146101000a81548160ff021916908315150217905550606082015181600201556080820151816003015590505080600260008760001916600019168152602001908152602001600020600101819055507f514f310f0599dc7152cbceb4f1b80297d1a615826350a8dcdc54168447e84050338683604051808473ffffffffffffffffffffffffffffffffffffffff1673ffffffffffffffffffffffffffffffffffffffff1681526020018360001916600019168152602001828152602001935050505060405180910390a1809350505050919050565b600080600015156001600086815260200190815260200160002060040160003373ffffffffffffffffffffffffffffffffffffffff1673ffffffffffffffffffffffffffffffffffffffff16815260200190815260200160002060009054906101000a900460ff16151514151561167157600080fd5b600115156001600086815260200190815260200160002060010160149054906101000a900460ff1615151415156116a757600080fd5b600460009054906101000a900473ffffffffffffffffffffffffffffffffffffffff1673ffffffffffffffffffffffffffffffffffffffff1663b43bd0693386866040518463ffffffff167c0100000000000000000000000000000000000000000000000000000000028152600401808473ffffffffffffffffffffffffffffffffffffffff1673ffffffffffffffffffffffffffffffffffffffff1681526020018381526020018281526020019350505050602060405180830381600087803b15801561177457600080fd5b505af1158015611788573d6000803e3d6000fd5b505050506040513d602081101561179e57600080fd5b810190808051906020019092919050505091506117bc3385856119e5565b9050816001600086815260200190815260200160002060030160008282540392505081905550806001600086815260200190815260200160002060000160008282540392505081905550600360009054906101000a900473ffffffffffffffffffffffffffffffffffffffff1673ffffffffffffffffffffffffffffffffffffffff1663a9059cbb33836040518363ffffffff167c0100000000000000000000000000000000000000000000000000000000028152600401808373ffffffffffffffffffffffffffffffffffffffff1673ffffffffffffffffffffffffffffffffffffffff16815260200182815260200192505050602060405180830381600087803b1580156118cb57600080fd5b505af11580156118df573d6000803e3d6000fd5b505050506040513d60208110156118f557600080fd5b8101908080519060200190929190505050151561191157600080fd5b600180600086815260200190815260200160002060040160003373ffffffffffffffffffffffffffffffffffffffff1673ffffffffffffffffffffffffffffffffffffffff16815260200190815260200160002060006101000a81548160ff02191690831515021790555050505050565b60016020528060005260406000206000915090508060000154908060010160009054906101000a900473ffffffffffffffffffffffffffffffffffffffff16908060010160149054906101000a900460ff16908060020154908060030154905085565b6000806000806001600087815260200190815260200160002060030154925060016000878152602001908152602001600020600001549150600460009054906101000a900473ffffffffffffffffffffffffffffffffffffffff1673ffffffffffffffffffffffffffffffffffffffff1663b43bd0698888886040518463ffffffff167c0100000000000000000000000000000000000000000000000000000000028152600401808473ffffffffffffffffffffffffffffffffffffffff1673ffffffffffffffffffffffffffffffffffffffff1681526020018381526020018281526020019350505050602060405180830381600087803b158015611aea57600080fd5b505af1158015611afe573d6000803e3d6000fd5b505050506040513d6020811015611b1457600080fd5b8101908080519060200190929190505050905082828202811515611b3457fe5b0493505050509392505050565b6000806000611b846040805190810160405280600b81526020017f704d696e4465706f736974000000000000000000000000000000000000000000815250610bf3565b915084846040518083805190602001908083835b602083101515611bbd5780518252602082019150602081019050602083039250611b98565b6001836020036101000a0380198251168184511680821785525050505050509050018281526020019250505060405180910390209050611bfc81610a99565b151515611c0857600080fd5b83611c1286610bf3565b14151515611c1f57600080fd5b600360009054906101000a900473ffffffffffffffffffffffffffffffffffffffff1673ffffffffffffffffffffffffffffffffffffffff166323b872dd3330856040518463ffffffff167c0100000000000000000000000000000000000000000000000000000000028152600401808473ffffffffffffffffffffffffffffffffffffffff1673ffffffffffffffffffffffffffffffffffffffff1681526020018373ffffffffffffffffffffffffffffffffffffffff1673ffffffffffffffffffffffffffffffffffffffff1681526020018281526020019350505050602060405180830381600087803b158015611d1857600080fd5b505af1158015611d2c573d6000803e3d6000fd5b505050506040513d6020811015611d4257600080fd5b81019080805190602001909291905050501515611d5e57600080fd5b60e060405190810160405280611da86040805190810160405280600e81526020017f704170706c7953746167654c656e000000000000000000000000000000000000815250610bf3565b42018152602001600081526020018381526020018681526020013373ffffffffffffffffffffffffffffffffffffffff168152602001600554611e1f6040805190810160405280600f81526020017f7052657665616c53746167654c656e0000000000000000000000000000000000815250610bf3565b611e5d6040805190810160405280600f81526020017f70436f6d6d697453746167654c656e0000000000000000000000000000000000815250610bf3565b611e9b6040805190810160405280600e81526020017f704170706c7953746167654c656e000000000000000000000000000000000000815250610bf3565b42010101018152602001858152506002600083600019166000191681526020019081526020016000206000820151816000015560208201518160010155604082015181600201556060820151816003019080519060200190611efe929190612977565b5060808201518160040160006101000a81548173ffffffffffffffffffffffffffffffffffffffff021916908373ffffffffffffffffffffffffffffffffffffffff16021790555060a0820151816005015560c082015181600601559050507f7ad5a045a626580a5b80e13a14bcc0745de6a803fff9656c1792124bb9ee675033868684604051808573ffffffffffffffffffffffffffffffffffffffff1673ffffffffffffffffffffffffffffffffffffffff168152602001806020018481526020018360001916600019168152602001828103825285818151815260200191508051906020019080838360005b83811015612008578082015181840152602081019050611fed565b50505050905090810190601f1680156120355780820380516001836020036101000a031916815260200191505b509550505050505060405180910390a1809250505092915050565b600061205a6128db565b60026000846000191660001916815260200190815260200160002060e06040519081016040529081600082015481526020016001820154815260200160028201548152602001600382018054600181600116156101000203166002900480601f0160208091040260200160405190810160405280929190818152602001828054600181600116156101000203166002900480156121385780601f1061210d57610100808354040283529160200191612138565b820191906000526020600020905b81548152906001019060200180831161211b57829003601f168201915b505050505081526020016004820160009054906101000a900473ffffffffffffffffffffffffffffffffffffffff1673ffffffffffffffffffffffffffffffffffffffff1673ffffffffffffffffffffffffffffffffffffffff1681526020016005820154815260200160068201548152505090508060000151421180156121c357508060a0015142105b80156121d3575060008160200151145b915050919050565b60006020528060005260406000206000915090505481565b600360009054906101000a900473ffffffffffffffffffffffffffffffffffffffff1681565b600460009054906101000a900473ffffffffffffffffffffffffffffffffffffffff1681565b80600080846040518082805190602001908083835b6020831015156122795780518252602082019150602081019050602083039250612254565b6001836020036101000a038019825116818451168082178552505050505050905001915050604051809103902060001916600019168152602001908152602001600020819055505050565b6122cc6128db565b60008060026000856000191660001916815260200190815260200160002060e06040519081016040529081600082015481526020016001820154815260200160028201548152602001600382018054600181600116156101000203166002900480601f0160208091040260200160405190810160405280929190818152602001828054600181600116156101000203166002900480156123ad5780601f10612382576101008083540402835291602001916123ad565b820191906000526020600020905b81548152906001019060200180831161239057829003601f168201915b505050505081526020016004820160009054906101000a900473ffffffffffffffffffffffffffffffffffffffff1673ffffffffffffffffffffffffffffffffffffffff1673ffffffffffffffffffffffffffffffffffffffff168152602001600582015481526020016006820154815250509250600160008460200151815260200190815260200160002091506124488360200151610ac3565b9050600460009054906101000a900473ffffffffffffffffffffffffffffffffffffffff1673ffffffffffffffffffffffffffffffffffffffff16634940318384602001516040518263ffffffff167c010000000000000000000000000000000000000000000000000000000002815260040180828152602001915050602060405180830381600087803b1580156124df57600080fd5b505af11580156124f3573d6000803e3d6000fd5b505050506040513d602081101561250957600080fd5b81019080805190602001909291905050501561265257428360a00151111561253e5761253d83606001518460c0015161223f565b5b600360009054906101000a900473ffffffffffffffffffffffffffffffffffffffff1673ffffffffffffffffffffffffffffffffffffffff1663a9059cbb8460800151836040518363ffffffff167c0100000000000000000000000000000000000000000000000000000000028152600401808373ffffffffffffffffffffffffffffffffffffffff1673ffffffffffffffffffffffffffffffffffffffff16815260200182815260200192505050602060405180830381600087803b15801561260757600080fd5b505af115801561261b573d6000803e3d6000fd5b505050506040513d602081101561263157600080fd5b8101908080519060200190929190505050151561264d57600080fd5b612798565b600360009054906101000a900473ffffffffffffffffffffffffffffffffffffffff1673ffffffffffffffffffffffffffffffffffffffff1663a9059cbb600160008660200151815260200190815260200160002060010160009054906101000a900473ffffffffffffffffffffffffffffffffffffffff16836040518363ffffffff167c0100000000000000000000000000000000000000000000000000000000028152600401808373ffffffffffffffffffffffffffffffffffffffff1673ffffffffffffffffffffffffffffffffffffffff16815260200182815260200192505050602060405180830381600087803b15801561275157600080fd5b505af1158015612765573d6000803e3d6000fd5b505050506040513d602081101561277b57600080fd5b8101908080519060200190929190505050151561279757600080fd5b5b600460009054906101000a900473ffffffffffffffffffffffffffffffffffffffff1673ffffffffffffffffffffffffffffffffffffffff1663053e71a684602001516040518263ffffffff167c010000000000000000000000000000000000000000000000000000000002815260040180828152602001915050602060405180830381600087803b15801561282d57600080fd5b505af1158015612841573d6000803e3d6000fd5b505050506040513d602081101561285757600080fd5b8101908080519060200190929190505050826003018190555060018260010160146101000a81548160ff02191690831515021790555050505050565b50805460018160011615610100020316600290046000825580601f106128b957506128d8565b601f0160209004906000526020600020908101906128d791906129f7565b5b50565b60e06040519081016040528060008152602001600081526020016000815260200160608152602001600073ffffffffffffffffffffffffffffffffffffffff16815260200160008152602001600081525090565b60a06040519081016040528060008152602001600073ffffffffffffffffffffffffffffffffffffffff16815260200160001515815260200160008152602001600081525090565b828054600181600116156101000203166002900490600052602060002090601f016020900481019282601f106129b857805160ff19168380011785556129e6565b828001600101855582156129e6579182015b828111156129e55782518255916020019190600101906129ca565b5b5090506129f391906129f7565b5090565b612a1991905b80821115612a155760008160009055506001016129fd565b5090565b905600a165627a7a72305820e03cedfcfe3a1ab3471cdcfeea7f7f5f984a6098fce3ce6a1d2b701c732b92530029",
  "source": "pragma solidity^0.4.11;\n\nimport \"./PLCRVoting.sol\";\nimport \"tokens/eip20/EIP20.sol\";\n\ncontract Parameterizer {\n\n  // ------\n  // EVENTS\n  // ------\n\n  event _ReparameterizationProposal(address proposer, string name, uint value, bytes32 propID);\n  event _NewChallenge(address challenger, bytes32 propID, uint pollID);\n\n\n  // ------\n  // DATA STRUCTURES\n  // ------\n\n  struct ParamProposal {\n    uint appExpiry;\n    uint challengeID;\n    uint deposit;\n    string name;\n    address owner;\n    uint processBy;\n    uint value;\n  }\n\n  struct Challenge {\n    uint rewardPool;        // (remaining) pool of tokens distributed amongst winning voters\n    address challenger;     // owner of Challenge\n    bool resolved;          // indication of if challenge is resolved\n    uint stake;             // number of tokens at risk for either party during challenge\n    uint winningTokens;     // (remaining) amount of tokens used for voting by the winning side\n    mapping(address => bool) tokenClaims;\n  }\n\n  // ------\n  // STATE\n  // ------\n\n  mapping(bytes32 => uint) public params;\n\n  // maps challengeIDs to associated challenge data\n  mapping(uint => Challenge) public challenges;\n \n  // maps pollIDs to intended data change if poll passes\n  mapping(bytes32 => ParamProposal) public proposals; \n\n  // Global Variables\n  EIP20 public token;\n  PLCRVoting public voting;\n  uint public PROCESSBY = 604800; // 7 days\n\n  // ------------\n  // CONSTRUCTOR\n  // ------------\n\n  /**\n  @dev constructor\n  @param _tokenAddr        address of the token which parameterizes this system\n  @param _plcrAddr         address of a PLCR voting contract for the provided token\n  @param _minDeposit       minimum deposit for listing to be whitelisted  \n  @param _pMinDeposit      minimum deposit to propose a reparameterization\n  @param _applyStageLen    period over which applicants wait to be whitelisted\n  @param _pApplyStageLen   period over which reparmeterization proposals wait to be processed \n  @param _dispensationPct  percentage of losing party's deposit distributed to winning party\n  @param _pDispensationPct percentage of losing party's deposit distributed to winning party in parameterizer\n  @param _commitStageLen  length of commit period for voting\n  @param _pCommitStageLen length of commit period for voting in parameterizer\n  @param _revealStageLen  length of reveal period for voting\n  @param _pRevealStageLen length of reveal period for voting in parameterizer\n  @param _voteQuorum       type of majority out of 100 necessary for vote success\n  @param _pVoteQuorum      type of majority out of 100 necessary for vote success in parameterizer\n  */\n  function Parameterizer( \n    address _tokenAddr,\n    address _plcrAddr,\n    uint _minDeposit,\n    uint _pMinDeposit,\n    uint _applyStageLen,\n    uint _pApplyStageLen,\n    uint _commitStageLen,\n    uint _pCommitStageLen,\n    uint _revealStageLen,\n    uint _pRevealStageLen,\n    uint _dispensationPct,\n    uint _pDispensationPct,\n    uint _voteQuorum,\n    uint _pVoteQuorum\n    ) public {\n      token = EIP20(_tokenAddr);\n      voting = PLCRVoting(_plcrAddr);\n\n      set(\"minDeposit\", _minDeposit);\n      set(\"pMinDeposit\", _pMinDeposit);\n      set(\"applyStageLen\", _applyStageLen);\n      set(\"pApplyStageLen\", _pApplyStageLen);\n      set(\"commitStageLen\", _commitStageLen);\n      set(\"pCommitStageLen\", _pCommitStageLen);\n      set(\"revealStageLen\", _revealStageLen);\n      set(\"pRevealStageLen\", _pRevealStageLen);\n      set(\"dispensationPct\", _dispensationPct);\n      set(\"pDispensationPct\", _pDispensationPct);\n      set(\"voteQuorum\", _voteQuorum);\n      set(\"pVoteQuorum\", _pVoteQuorum);\n  }\n\n  // -----------------------\n  // TOKEN HOLDER INTERFACE\n  // -----------------------\n\n  /**\n  @notice propose a reparamaterization of the key _name's value to _value.\n  @param _name the name of the proposed param to be set\n  @param _value the proposed value to set the param to be set\n  */\n  function proposeReparameterization(string _name, uint _value) public returns (bytes32) {\n    uint deposit = get(\"pMinDeposit\");\n    bytes32 propID = keccak256(_name, _value);\n\n    require(!propExists(propID)); // Forbid duplicate proposals\n    require(get(_name) != _value); // Forbid NOOP reparameterizations\n    require(token.transferFrom(msg.sender, this, deposit)); // escrow tokens (deposit amt)\n\n    // attach name and value to pollID    \n    proposals[propID] = ParamProposal({\n      appExpiry: now + get(\"pApplyStageLen\"),\n      challengeID: 0,\n      deposit: deposit,\n      name: _name,\n      owner: msg.sender,\n      processBy: now + get(\"pApplyStageLen\") + get(\"pCommitStageLen\") +\n        get(\"pRevealStageLen\") + PROCESSBY,\n      value: _value\n    });\n\n    _ReparameterizationProposal(msg.sender, _name, _value, propID);\n    return propID;\n  }\n\n  /**\n  @notice challenge the provided proposal ID, and put tokens at stake to do so.\n  @param _propID the proposal ID to challenge\n  */\n  function challengeReparameterization(bytes32 _propID) public returns (uint challengeID) {\n    ParamProposal memory prop = proposals[_propID];\n    uint deposit = get(\"pMinDeposit\");\n\n    require(propExists(_propID) && prop.challengeID == 0); \n\n    //take tokens from challenger\n    require(token.transferFrom(msg.sender, this, deposit));\n    //start poll\n    uint pollID = voting.startPoll(\n      get(\"pVoteQuorum\"),\n      get(\"pCommitStageLen\"),\n      get(\"pRevealStageLen\")\n    );\n\n    challenges[pollID] = Challenge({\n      challenger: msg.sender,\n      rewardPool: ((100 - get(\"pDispensationPct\")) * deposit) / 100, \n      stake: deposit,\n      resolved: false,\n      winningTokens: 0\n    });\n\n    proposals[_propID].challengeID = pollID;       // update listing to store most recent challenge\n\n    _NewChallenge(msg.sender, _propID, pollID);\n    return pollID;\n  }\n\n  /**\n  @notice for the provided proposal ID, set it, resolve its challenge, or delete it depending on whether it can be set, has a challenge which can be resolved, or if its \"process by\" date has passed\n  @param _propID the proposal ID to make a determination and state transition for\n  */\n  function processProposal(bytes32 _propID) public {\n    ParamProposal storage prop = proposals[_propID];\n\n    if (canBeSet(_propID)) {\n      set(prop.name, prop.value);\n    } else if (challengeCanBeResolved(_propID)) {\n      resolveChallenge(_propID);\n    } else if (now > prop.processBy) {\n      require(token.transfer(prop.owner, prop.deposit));\n    } else {\n      revert();\n    }\n\n    delete proposals[_propID];\n  }\n\n  /**\n  @notice claim the tokens owed for the msg.sender in the provided challenge\n  @param _challengeID the challenge ID to claim tokens for\n  @param _salt the salt used to vote in the challenge being withdrawn for\n  */\n  function claimReward(uint _challengeID, uint _salt) public {\n    // ensure voter has not already claimed tokens and challenge results have been processed\n    require(challenges[_challengeID].tokenClaims[msg.sender] == false);\n    require(challenges[_challengeID].resolved == true);\n\n    uint voterTokens = voting.getNumPassingTokens(msg.sender, _challengeID, _salt);\n    uint reward = voterReward(msg.sender, _challengeID, _salt);\n\n    // subtract voter's information to preserve the participation ratios of other voters\n    // compared to the remaining pool of rewards\n    challenges[_challengeID].winningTokens -= voterTokens;\n    challenges[_challengeID].rewardPool -= reward;\n\n    require(token.transfer(msg.sender, reward));\n    \n    // ensures a voter cannot claim tokens again\n    challenges[_challengeID].tokenClaims[msg.sender] = true;\n  }\n\n  // --------\n  // GETTERS\n  // --------\n\n  /**\n  @dev                Calculates the provided voter's token reward for the given poll.\n  @param _voter       The address of the voter whose reward balance is to be returned\n  @param _challengeID The ID of the challenge the voter's reward is being calculated for\n  @param _salt        The salt of the voter's commit hash in the given poll\n  @return             The uint indicating the voter's reward\n  */\n  function voterReward(address _voter, uint _challengeID, uint _salt)\n  public view returns (uint) {\n    uint winningTokens = challenges[_challengeID].winningTokens;\n    uint rewardPool = challenges[_challengeID].rewardPool;\n    uint voterTokens = voting.getNumPassingTokens(_voter, _challengeID, _salt);\n    return (voterTokens * rewardPool) / winningTokens;\n  }\n\n  /**\n  @notice Determines whether a proposal passed its application stage without a challenge\n  @param _propID The proposal ID for which to determine whether its application stage passed without a challenge\n  */\n  function canBeSet(bytes32 _propID) view public returns (bool) {\n    ParamProposal memory prop = proposals[_propID];\n\n    return (now > prop.appExpiry && now < prop.processBy && prop.challengeID == 0);\n  }\n\n  /**\n  @notice Determines whether a proposal exists for the provided proposal ID\n  @param _propID The proposal ID whose existance is to be determined\n  */\n  function propExists(bytes32 _propID) view public returns (bool) {\n    return proposals[_propID].processBy > 0;\n  }\n\n  /**\n  @notice Determines whether the provided proposal ID has a challenge which can be resolved\n  @param _propID The proposal ID whose challenge to inspect\n  */\n  function challengeCanBeResolved(bytes32 _propID) view public returns (bool) {\n    ParamProposal memory prop = proposals[_propID];\n    Challenge memory challenge = challenges[prop.challengeID];\n\n    return (prop.challengeID > 0 && challenge.resolved == false &&\n            voting.pollEnded(prop.challengeID));\n  }\n\n  /**\n  @notice Determines the number of tokens to awarded to the winning party in a challenge\n  @param _challengeID The challengeID to determine a reward for\n  */\n  function challengeWinnerReward(uint _challengeID) public view returns (uint) {\n    if(voting.getTotalNumberOfTokensForWinningOption(_challengeID) == 0) {\n      // Edge case, nobody voted, give all tokens to the winner.\n      return 2 * challenges[_challengeID].stake;\n    }\n    \n    return (2 * challenges[_challengeID].stake) - challenges[_challengeID].rewardPool;\n  }\n\n  /**\n  @notice gets the parameter keyed by the provided name value from the params mapping\n  @param _name the key whose value is to be determined\n  */\n  function get(string _name) public view returns (uint value) {\n    return params[keccak256(_name)];\n  }\n\n  // ----------------\n  // PRIVATE FUNCTIONS\n  // ----------------\n\n  /**\n  @dev resolves a challenge for the provided _propID. It must be checked in advance whether the _propID has a challenge on it\n  @param _propID the proposal ID whose challenge is to be resolved.\n  */\n  function resolveChallenge(bytes32 _propID) private {\n    ParamProposal memory prop = proposals[_propID];\n    Challenge storage challenge = challenges[prop.challengeID];\n\n    // winner gets back their full staked deposit, and dispensationPct*loser's stake\n    uint reward = challengeWinnerReward(prop.challengeID);\n\n    if (voting.isPassed(prop.challengeID)) { // The challenge failed\n      if(prop.processBy > now) {\n        set(prop.name, prop.value);\n      }\n      require(token.transfer(prop.owner, reward));\n    } \n    else { // The challenge succeeded\n      require(token.transfer(challenges[prop.challengeID].challenger, reward));\n    }\n\n    challenge.winningTokens =\n      voting.getTotalNumberOfTokensForWinningOption(prop.challengeID);\n    challenge.resolved = true;\n  }\n\n  /**\n  @dev sets the param keted by the provided name to the provided value\n  @param _name the name of the param to be set\n  @param _value the value to set the param to be set\n  */\n  function set(string _name, uint _value) private {\n    params[keccak256(_name)] = _value;\n  }\n}\n\n",
  "sourcePath": "/usr/src/app/delphi-unchained/contracts/deps/Parameterizer.sol",
  "compiler": {
    "name": "solc",
    "version": "0.4.23+commit.124ca40d.Emscripten.clang"
  },
  "schemaVersion": "2.0.0",
  "updatedAt": "2018-05-01T06:02:37.102Z"
}