{
  "contractName": "PLCRVoting",
  "abi": [
    {
      "constant": true,
      "inputs": [],
      "name": "INITIAL_POLL_NONCE",
      "outputs": [
        {
          "name": "",
          "type": "uint256"
        }
      ],
      "payable": false,
      "stateMutability": "view",
      "type": "function"
    },
    {
      "constant": true,
      "inputs": [
        {
          "name": "",
          "type": "address"
        }
      ],
      "name": "voteTokenBalance",
      "outputs": [
        {
          "name": "",
          "type": "uint256"
        }
      ],
      "payable": false,
      "stateMutability": "view",
      "type": "function"
    },
    {
      "constant": true,
      "inputs": [
        {
          "name": "",
          "type": "uint256"
        }
      ],
      "name": "pollMap",
      "outputs": [
        {
          "name": "commitEndDate",
          "type": "uint256"
        },
        {
          "name": "revealEndDate",
          "type": "uint256"
        },
        {
          "name": "voteQuorum",
          "type": "uint256"
        },
        {
          "name": "votesFor",
          "type": "uint256"
        },
        {
          "name": "votesAgainst",
          "type": "uint256"
        }
      ],
      "payable": false,
      "stateMutability": "view",
      "type": "function"
    },
    {
      "constant": true,
      "inputs": [],
      "name": "pollNonce",
      "outputs": [
        {
          "name": "",
          "type": "uint256"
        }
      ],
      "payable": false,
      "stateMutability": "view",
      "type": "function"
    },
    {
      "constant": true,
      "inputs": [],
      "name": "token",
      "outputs": [
        {
          "name": "",
          "type": "address"
        }
      ],
      "payable": false,
      "stateMutability": "view",
      "type": "function"
    },
    {
      "inputs": [
        {
          "name": "_tokenAddr",
          "type": "address"
        }
      ],
      "payable": false,
      "stateMutability": "nonpayable",
      "type": "constructor"
    },
    {
      "anonymous": false,
      "inputs": [
        {
          "indexed": false,
          "name": "voter",
          "type": "address"
        },
        {
          "indexed": false,
          "name": "pollID",
          "type": "uint256"
        },
        {
          "indexed": false,
          "name": "numTokens",
          "type": "uint256"
        }
      ],
      "name": "VoteCommitted",
      "type": "event"
    },
    {
      "anonymous": false,
      "inputs": [
        {
          "indexed": false,
          "name": "voter",
          "type": "address"
        },
        {
          "indexed": false,
          "name": "pollID",
          "type": "uint256"
        },
        {
          "indexed": false,
          "name": "numTokens",
          "type": "uint256"
        },
        {
          "indexed": false,
          "name": "choice",
          "type": "uint256"
        }
      ],
      "name": "VoteRevealed",
      "type": "event"
    },
    {
      "anonymous": false,
      "inputs": [
        {
          "indexed": false,
          "name": "voteQuorum",
          "type": "uint256"
        },
        {
          "indexed": false,
          "name": "commitDuration",
          "type": "uint256"
        },
        {
          "indexed": false,
          "name": "revealDuration",
          "type": "uint256"
        },
        {
          "indexed": false,
          "name": "pollID",
          "type": "uint256"
        }
      ],
      "name": "PollCreated",
      "type": "event"
    },
    {
      "anonymous": false,
      "inputs": [
        {
          "indexed": false,
          "name": "voter",
          "type": "address"
        },
        {
          "indexed": false,
          "name": "numTokens",
          "type": "uint256"
        }
      ],
      "name": "VotingRightsGranted",
      "type": "event"
    },
    {
      "anonymous": false,
      "inputs": [
        {
          "indexed": false,
          "name": "voter",
          "type": "address"
        },
        {
          "indexed": false,
          "name": "numTokens",
          "type": "uint256"
        }
      ],
      "name": "VotingRightsWithdrawn",
      "type": "event"
    },
    {
      "constant": false,
      "inputs": [
        {
          "name": "_numTokens",
          "type": "uint256"
        }
      ],
      "name": "requestVotingRights",
      "outputs": [],
      "payable": false,
      "stateMutability": "nonpayable",
      "type": "function"
    },
    {
      "constant": false,
      "inputs": [
        {
          "name": "_numTokens",
          "type": "uint256"
        }
      ],
      "name": "withdrawVotingRights",
      "outputs": [],
      "payable": false,
      "stateMutability": "nonpayable",
      "type": "function"
    },
    {
      "constant": false,
      "inputs": [
        {
          "name": "_pollID",
          "type": "uint256"
        }
      ],
      "name": "rescueTokens",
      "outputs": [],
      "payable": false,
      "stateMutability": "nonpayable",
      "type": "function"
    },
    {
      "constant": false,
      "inputs": [
        {
          "name": "_pollID",
          "type": "uint256"
        },
        {
          "name": "_secretHash",
          "type": "bytes32"
        },
        {
          "name": "_numTokens",
          "type": "uint256"
        },
        {
          "name": "_prevPollID",
          "type": "uint256"
        }
      ],
      "name": "commitVote",
      "outputs": [],
      "payable": false,
      "stateMutability": "nonpayable",
      "type": "function"
    },
    {
      "constant": true,
      "inputs": [
        {
          "name": "_prevID",
          "type": "uint256"
        },
        {
          "name": "_nextID",
          "type": "uint256"
        },
        {
          "name": "_voter",
          "type": "address"
        },
        {
          "name": "_numTokens",
          "type": "uint256"
        }
      ],
      "name": "validPosition",
      "outputs": [
        {
          "name": "valid",
          "type": "bool"
        }
      ],
      "payable": false,
      "stateMutability": "view",
      "type": "function"
    },
    {
      "constant": false,
      "inputs": [
        {
          "name": "_pollID",
          "type": "uint256"
        },
        {
          "name": "_voteOption",
          "type": "uint256"
        },
        {
          "name": "_salt",
          "type": "uint256"
        }
      ],
      "name": "revealVote",
      "outputs": [],
      "payable": false,
      "stateMutability": "nonpayable",
      "type": "function"
    },
    {
      "constant": true,
      "inputs": [
        {
          "name": "_voter",
          "type": "address"
        },
        {
          "name": "_pollID",
          "type": "uint256"
        },
        {
          "name": "_salt",
          "type": "uint256"
        }
      ],
      "name": "getNumPassingTokens",
      "outputs": [
        {
          "name": "correctVotes",
          "type": "uint256"
        }
      ],
      "payable": false,
      "stateMutability": "view",
      "type": "function"
    },
    {
      "constant": false,
      "inputs": [
        {
          "name": "_voteQuorum",
          "type": "uint256"
        },
        {
          "name": "_commitDuration",
          "type": "uint256"
        },
        {
          "name": "_revealDuration",
          "type": "uint256"
        }
      ],
      "name": "startPoll",
      "outputs": [
        {
          "name": "pollID",
          "type": "uint256"
        }
      ],
      "payable": false,
      "stateMutability": "nonpayable",
      "type": "function"
    },
    {
      "constant": true,
      "inputs": [
        {
          "name": "_pollID",
          "type": "uint256"
        }
      ],
      "name": "isPassed",
      "outputs": [
        {
          "name": "passed",
          "type": "bool"
        }
      ],
      "payable": false,
      "stateMutability": "view",
      "type": "function"
    },
    {
      "constant": true,
      "inputs": [
        {
          "name": "_pollID",
          "type": "uint256"
        }
      ],
      "name": "getTotalNumberOfTokensForWinningOption",
      "outputs": [
        {
          "name": "numTokens",
          "type": "uint256"
        }
      ],
      "payable": false,
      "stateMutability": "view",
      "type": "function"
    },
    {
      "constant": true,
      "inputs": [
        {
          "name": "_pollID",
          "type": "uint256"
        }
      ],
      "name": "pollEnded",
      "outputs": [
        {
          "name": "ended",
          "type": "bool"
        }
      ],
      "payable": false,
      "stateMutability": "view",
      "type": "function"
    },
    {
      "constant": true,
      "inputs": [
        {
          "name": "_pollID",
          "type": "uint256"
        }
      ],
      "name": "commitPeriodActive",
      "outputs": [
        {
          "name": "active",
          "type": "bool"
        }
      ],
      "payable": false,
      "stateMutability": "view",
      "type": "function"
    },
    {
      "constant": true,
      "inputs": [
        {
          "name": "_pollID",
          "type": "uint256"
        }
      ],
      "name": "revealPeriodActive",
      "outputs": [
        {
          "name": "active",
          "type": "bool"
        }
      ],
      "payable": false,
      "stateMutability": "view",
      "type": "function"
    },
    {
      "constant": true,
      "inputs": [
        {
          "name": "_voter",
          "type": "address"
        },
        {
          "name": "_pollID",
          "type": "uint256"
        }
      ],
      "name": "hasBeenRevealed",
      "outputs": [
        {
          "name": "revealed",
          "type": "bool"
        }
      ],
      "payable": false,
      "stateMutability": "view",
      "type": "function"
    },
    {
      "constant": true,
      "inputs": [
        {
          "name": "_pollID",
          "type": "uint256"
        }
      ],
      "name": "pollExists",
      "outputs": [
        {
          "name": "exists",
          "type": "bool"
        }
      ],
      "payable": false,
      "stateMutability": "view",
      "type": "function"
    },
    {
      "constant": true,
      "inputs": [
        {
          "name": "_voter",
          "type": "address"
        },
        {
          "name": "_pollID",
          "type": "uint256"
        }
      ],
      "name": "getCommitHash",
      "outputs": [
        {
          "name": "commitHash",
          "type": "bytes32"
        }
      ],
      "payable": false,
      "stateMutability": "view",
      "type": "function"
    },
    {
      "constant": true,
      "inputs": [
        {
          "name": "_voter",
          "type": "address"
        },
        {
          "name": "_pollID",
          "type": "uint256"
        }
      ],
      "name": "getNumTokens",
      "outputs": [
        {
          "name": "numTokens",
          "type": "uint256"
        }
      ],
      "payable": false,
      "stateMutability": "view",
      "type": "function"
    },
    {
      "constant": true,
      "inputs": [
        {
          "name": "_voter",
          "type": "address"
        }
      ],
      "name": "getLastNode",
      "outputs": [
        {
          "name": "pollID",
          "type": "uint256"
        }
      ],
      "payable": false,
      "stateMutability": "view",
      "type": "function"
    },
    {
      "constant": true,
      "inputs": [
        {
          "name": "_voter",
          "type": "address"
        }
      ],
      "name": "getLockedTokens",
      "outputs": [
        {
          "name": "numTokens",
          "type": "uint256"
        }
      ],
      "payable": false,
      "stateMutability": "view",
      "type": "function"
    },
    {
      "constant": true,
      "inputs": [
        {
          "name": "_voter",
          "type": "address"
        },
        {
          "name": "_numTokens",
          "type": "uint256"
        }
      ],
      "name": "getInsertPointForNumTokens",
      "outputs": [
        {
          "name": "prevNode",
          "type": "uint256"
        }
      ],
      "payable": false,
      "stateMutability": "view",
      "type": "function"
    },
    {
      "constant": true,
      "inputs": [
        {
          "name": "_terminationDate",
          "type": "uint256"
        }
      ],
      "name": "isExpired",
      "outputs": [
        {
          "name": "expired",
          "type": "bool"
        }
      ],
      "payable": false,
      "stateMutability": "view",
      "type": "function"
    },
    {
      "constant": true,
      "inputs": [
        {
          "name": "_user",
          "type": "address"
        },
        {
          "name": "_pollID",
          "type": "uint256"
        }
      ],
      "name": "attrUUID",
      "outputs": [
        {
          "name": "UUID",
          "type": "bytes32"
        }
      ],
      "payable": false,
      "stateMutability": "pure",
      "type": "function"
    }
  ],
  "bytecode": "0x608060405234801561001057600080fd5b506040516020806122e88339810180604052810190808051906020019092919050505080600560006101000a81548173ffffffffffffffffffffffffffffffffffffffff021916908373ffffffffffffffffffffffffffffffffffffffff160217905550600080819055505061225d8061008b6000396000f30060806040526004361061015f576000357c0100000000000000000000000000000000000000000000000000000000900463ffffffff168063053e71a6146101645780632173a10f146101a557806332ed3d60146101d05780633b93029414610225578063427fa1d21461027c578063441c77c0146102d357806349403183146103185780636148fed51461035d5780636b2d95d4146103ba5780636cbf9c5e1461041157806372d8e44214610460578063819b0293146104c557806388d21ff31461053e57806397508f361461058357806397603560146105ae578063a1103f37146105db578063a25236fe14610644578063a4439dc514610671578063b11d8bb8146106b6578063b43bd069146106f7578063c622afb014610762578063d1382092146107c3578063d901402b14610824578063d9548e531461088d578063e7b1d43c146108d2578063ee684830146108ff578063fc0c546a14610944575b600080fd5b34801561017057600080fd5b5061018f6004803603810190808035906020019092919050505061099b565b6040518082815260200191505060405180910390f35b3480156101b157600080fd5b506101ba6109fc565b6040518082815260200191505060405180910390f35b3480156101dc57600080fd5b5061020f600480360381019080803590602001909291908035906020019092919080359060200190929190505050610a01565b6040518082815260200191505060405180910390f35b34801561023157600080fd5b50610266600480360381019080803573ffffffffffffffffffffffffffffffffffffffff169060200190929190505050610ae5565b6040518082815260200191505060405180910390f35b34801561028857600080fd5b506102bd600480360381019080803573ffffffffffffffffffffffffffffffffffffffff169060200190929190505050610afd565b6040518082815260200191505060405180910390f35b3480156102df57600080fd5b506102fe60048036038101908080359060200190929190505050610bf5565b604051808215151515815260200191505060405180910390f35b34801561032457600080fd5b5061034360048036038101908080359060200190929190505050610c44565b604051808215151515815260200191505060405180910390f35b34801561036957600080fd5b5061038860048036038101908080359060200190929190505050610cd7565b604051808681526020018581526020018481526020018381526020018281526020019550505050505060405180910390f35b3480156103c657600080fd5b506103fb600480360381019080803573ffffffffffffffffffffffffffffffffffffffff169060200190929190505050610d0d565b6040518082815260200191505060405180910390f35b34801561041d57600080fd5b5061045e6004803603810190808035906020019092919080356000191690602001909291908035906020019092919080359060200190929190505050610d28565b005b34801561046c57600080fd5b506104ab600480360381019080803573ffffffffffffffffffffffffffffffffffffffff169060200190929190803590602001909291905050506112e1565b604051808215151515815260200191505060405180910390f35b3480156104d157600080fd5b506105246004803603810190808035906020019092919080359060200190929190803573ffffffffffffffffffffffffffffffffffffffff169060200190929190803590602001909291905050506113ee565b604051808215151515815260200191505060405180910390f35b34801561054a57600080fd5b5061056960048036038101908080359060200190929190505050611432565b604051808215151515815260200191505060405180910390f35b34801561058f57600080fd5b506105986114c6565b6040518082815260200191505060405180910390f35b3480156105ba57600080fd5b506105d9600480360381019080803590602001909291905050506114cc565b005b3480156105e757600080fd5b50610626600480360381019080803573ffffffffffffffffffffffffffffffffffffffff169060200190929190803590602001909291905050506115c4565b60405180826000191660001916815260200191505060405180910390f35b34801561065057600080fd5b5061066f60048036038101908080359060200190929190505050611627565b005b34801561067d57600080fd5b5061069c60048036038101908080359060200190929190505050611927565b604051808215151515815260200191505060405180910390f35b3480156106c257600080fd5b506106f5600480360381019080803590602001909291908035906020019092919080359060200190929190505050611964565b005b34801561070357600080fd5b5061074c600480360381019080803573ffffffffffffffffffffffffffffffffffffffff1690602001909291908035906020019092919080359060200190929190505050611b7b565b6040518082815260200191505060405180910390f35b34801561076e57600080fd5b506107ad600480360381019080803573ffffffffffffffffffffffffffffffffffffffff16906020019092919080359060200190929190505050611c1e565b6040518082815260200191505060405180910390f35b3480156107cf57600080fd5b5061080e600480360381019080803573ffffffffffffffffffffffffffffffffffffffff16906020019092919080359060200190929190505050611d62565b6040518082815260200191505060405180910390f35b34801561083057600080fd5b5061086f600480360381019080803573ffffffffffffffffffffffffffffffffffffffff16906020019092919080359060200190929190505050611e67565b60405180826000191660001916815260200191505060405180910390f35b34801561089957600080fd5b506108b860048036038101908080359060200190929190505050611f6f565b604051808215151515815260200191505060405180910390f35b3480156108de57600080fd5b506108fd60048036038101908080359060200190929190505050611f7b565b005b34801561090b57600080fd5b5061092a6004803603810190808035906020019092919050505061219f565b604051808215151515815260200191505060405180910390f35b34801561095057600080fd5b506109596121db565b604051808273ffffffffffffffffffffffffffffffffffffffff1673ffffffffffffffffffffffffffffffffffffffff16815260200191505060405180910390f35b60006109a68261219f565b15156109b157600080fd5b6109ba82610c44565b156109dd57600160008381526020019081526020016000206003015490506109f7565b600160008381526020019081526020016000206004015490505b919050565b600081565b600060016000540160008190555060a060405190810160405280844201815260200183854201018152602001858152602001600081526020016000815250600160008054815260200190815260200160002060008201518160000155602082015181600101556040820151816002015560608201518160030155608082015181600401559050507fef096063d99f4ef9370b5e89d45025615c869845ca33878d173e8dca429b2be08484846000546040518085815260200184815260200183815260200182815260200194505050505060405180910390a160005490509392505050565b60026020528060005260406000206000915090505481565b6000600360008373ffffffffffffffffffffffffffffffffffffffff1673ffffffffffffffffffffffffffffffffffffffff16815260200190815260200160002073__DLL___________________________________6330fe0a0a909160006040518363ffffffff167c0100000000000000000000000000000000000000000000000000000000028152600401808381526020018281526020019250505060206040518083038186803b158015610bb357600080fd5b505af4158015610bc7573d6000803e3d6000fd5b505050506040513d6020811015610bdd57600080fd5b81019080805190602001909291905050509050919050565b6000610c0082611432565b1515610c0b57600080fd5b610c2a6001600084815260200190815260200160002060010154611f6f565b158015610c3d5750610c3b82611927565b155b9050919050565b6000610c4e612201565b610c578361219f565b1515610c6257600080fd5b6001600084815260200190815260200160002060a060405190810160405290816000820154815260200160018201548152602001600282015481526020016003820154815260200160048201548152505090508060800151816060015101816040015102816060015160640211915050919050565b60016020528060005260406000206000915090508060000154908060010154908060020154908060030154908060040154905085565b6000610d2182610d1c84610afd565b611d62565b9050919050565b600080610d3486611927565b1515610d3f57600080fd5b83600260003373ffffffffffffffffffffffffffffffffffffffff1673ffffffffffffffffffffffffffffffffffffffff1681526020019081526020016000205410151515610d8d57600080fd5b60008614151515610d9d57600080fd5b6000831480610dbd57506000600102610db63385611e67565b6000191614155b1515610dc857600080fd5b600360003373ffffffffffffffffffffffffffffffffffffffff1673ffffffffffffffffffffffffffffffffffffffff16815260200190815260200160002073__DLL___________________________________6307d29ac99091856040518363ffffffff167c0100000000000000000000000000000000000000000000000000000000028152600401808381526020018281526020019250505060206040518083038186803b158015610e7b57600080fd5b505af4158015610e8f573d6000803e3d6000fd5b505050506040513d6020811015610ea557600080fd5b81019080805190602001909291905050509150858214610ec55781610fb4565b600360003373ffffffffffffffffffffffffffffffffffffffff1673ffffffffffffffffffffffffffffffffffffffff16815260200190815260200160002073__DLL___________________________________6307d29ac99091886040518363ffffffff167c0100000000000000000000000000000000000000000000000000000000028152600401808381526020018281526020019250505060206040518083038186803b158015610f7857600080fd5b505af4158015610f8c573d6000803e3d6000fd5b505050506040513d6020811015610fa257600080fd5b81019080805190602001909291905050505b9150610fc2838333876113ee565b1515610fcd57600080fd5b600360003373ffffffffffffffffffffffffffffffffffffffff1673ffffffffffffffffffffffffffffffffffffffff16815260200190815260200160002073__DLL___________________________________639735c51b90918589866040518563ffffffff167c01000000000000000000000000000000000000000000000000000000000281526004018085815260200184815260200183815260200182815260200194505050505060006040518083038186803b15801561109057600080fd5b505af41580156110a4573d6000803e3d6000fd5b505050506110b233876115c4565b9050600473__AttributeStore________________________63977aa031909183876040518463ffffffff167c010000000000000000000000000000000000000000000000000000000002815260040180848152602001836000191660001916815260200180602001838152602001828103825260098152602001807f6e756d546f6b656e73000000000000000000000000000000000000000000000081525060200194505050505060006040518083038186803b15801561117357600080fd5b505af4158015611187573d6000803e3d6000fd5b50505050600473__AttributeStore________________________63977aa03190918388600190046040518463ffffffff167c0100000000000000000000000000000000000000000000000000000000028152600401808481526020018360001916600019168152602001806020018381526020018281038252600a8152602001807f636f6d6d6974486173680000000000000000000000000000000000000000000081525060200194505050505060006040518083038186803b15801561124e57600080fd5b505af4158015611262573d6000803e3d6000fd5b505050507f1d1ce8842c4b2d0eaed42eb6d7732092ca85f0992cae9c760d181efcb0aedf4e338786604051808473ffffffffffffffffffffffffffffffffffffffff1673ffffffffffffffffffffffffffffffffffffffff168152602001838152602001828152602001935050505060405180910390a1505050505050565b60006112ec82611432565b15156112f757600080fd5b600360008473ffffffffffffffffffffffffffffffffffffffff1673ffffffffffffffffffffffffffffffffffffffff16815260200190815260200160002073__DLL___________________________________63366a5ba29091846040518363ffffffff167c0100000000000000000000000000000000000000000000000000000000028152600401808381526020018281526020019250505060206040518083038186803b1580156113aa57600080fd5b505af41580156113be573d6000803e3d6000fd5b505050506040513d60208110156113d457600080fd5b810190808051906020019092919050505015905092915050565b60008060006113fd8588611d62565b841015915061140c8587611d62565b8411158061141a5750600086145b90508180156114265750805b92505050949350505050565b6000806000600160008581526020019081526020016000206000015491506001600085815260200190815260200160002060010154905060008214801561147a575060008114155b15151561148357fe5b600082141580156114945750600081145b15151561149d57fe5b60008214806114ac5750600081145b156114ba57600092506114bf565b600192505b5050919050565b60005481565b6114d58161219f565b15156114e057600080fd5b6114ea33826112e1565b1515156114f657600080fd5b600360003373ffffffffffffffffffffffffffffffffffffffff1673ffffffffffffffffffffffffffffffffffffffff16815260200190815260200160002073__DLL___________________________________636d900ed09091836040518363ffffffff167c0100000000000000000000000000000000000000000000000000000000028152600401808381526020018281526020019250505060006040518083038186803b1580156115a957600080fd5b505af41580156115bd573d6000803e3d6000fd5b5050505050565b60008282604051808373ffffffffffffffffffffffffffffffffffffffff1673ffffffffffffffffffffffffffffffffffffffff166c01000000000000000000000000028152601401828152602001925050506040518091039020905092915050565b80600560009054906101000a900473ffffffffffffffffffffffffffffffffffffffff1673ffffffffffffffffffffffffffffffffffffffff166370a08231336040518263ffffffff167c0100000000000000000000000000000000000000000000000000000000028152600401808273ffffffffffffffffffffffffffffffffffffffff1673ffffffffffffffffffffffffffffffffffffffff168152602001915050602060405180830381600087803b1580156116e557600080fd5b505af11580156116f9573d6000803e3d6000fd5b505050506040513d602081101561170f57600080fd5b81019080805190602001909291905050501015151561172d57600080fd5b600560009054906101000a900473ffffffffffffffffffffffffffffffffffffffff1673ffffffffffffffffffffffffffffffffffffffff166323b872dd3330846040518463ffffffff167c0100000000000000000000000000000000000000000000000000000000028152600401808473ffffffffffffffffffffffffffffffffffffffff1673ffffffffffffffffffffffffffffffffffffffff1681526020018373ffffffffffffffffffffffffffffffffffffffff1673ffffffffffffffffffffffffffffffffffffffff1681526020018281526020019350505050602060405180830381600087803b15801561182657600080fd5b505af115801561183a573d6000803e3d6000fd5b505050506040513d602081101561185057600080fd5b8101908080519060200190929190505050151561186c57600080fd5b80600260003373ffffffffffffffffffffffffffffffffffffffff1673ffffffffffffffffffffffffffffffffffffffff168152602001908152602001600020600082825401925050819055507f4bdec44a53feb3aabedf51c989ff2b6aebe7369d3974f57c304758a8537281e13382604051808373ffffffffffffffffffffffffffffffffffffffff1673ffffffffffffffffffffffffffffffffffffffff1681526020018281526020019250505060405180910390a150565b600061193282611432565b151561193d57600080fd5b61195c6001600084815260200190815260200160002060000154611f6f565b159050919050565b600061196f84610bf5565b151561197a57600080fd5b61198433856112e1565b15151561199057600080fd5b61199a3385611e67565b60001916838360405180838152602001828152602001925050506040518091039020600019161415156119cc57600080fd5b6119d63385611d62565b90506001831415611a0a57806001600086815260200190815260200160002060030160008282540192505081905550611a2f565b8060016000868152602001908152602001600020600401600082825401925050819055505b600360003373ffffffffffffffffffffffffffffffffffffffff1673ffffffffffffffffffffffffffffffffffffffff16815260200190815260200160002073__DLL___________________________________636d900ed09091866040518363ffffffff167c0100000000000000000000000000000000000000000000000000000000028152600401808381526020018281526020019250505060006040518083038186803b158015611ae257600080fd5b505af4158015611af6573d6000803e3d6000fd5b505050507f7f9df012dd015e7e61a4a17ccf8db7fb6afbe211465b5696368d1d6408d0331133858386604051808573ffffffffffffffffffffffffffffffffffffffff1673ffffffffffffffffffffffffffffffffffffffff16815260200184815260200183815260200182815260200194505050505060405180910390a150505050565b600080600080611b8a8661219f565b1515611b9557600080fd5b611b9f87876112e1565b1515611baa57600080fd5b611bb386610c44565b611bbe576000611bc1565b60015b60ff1692508285604051808381526020018281526020019250505060405180910390209150611bf08787611e67565b905080600019168260001916141515611c0857600080fd5b611c128787611d62565b93505050509392505050565b6000806000611c2c85610afd565b9150611c388583611d62565b90505b600081141515611d5657611c4f8583611d62565b905083811015611c6157819250611d5a565b600360008673ffffffffffffffffffffffffffffffffffffffff1673ffffffffffffffffffffffffffffffffffffffff16815260200190815260200160002073__DLL___________________________________6330fe0a0a9091846040518363ffffffff167c0100000000000000000000000000000000000000000000000000000000028152600401808381526020018281526020019250505060206040518083038186803b158015611d1457600080fd5b505af4158015611d28573d6000803e3d6000fd5b505050506040513d6020811015611d3e57600080fd5b81019080805190602001909291905050509150611c3b565b8192505b505092915050565b6000600473__AttributeStore________________________6350389f5c9091611d8c86866115c4565b6040518363ffffffff167c010000000000000000000000000000000000000000000000000000000002815260040180838152602001826000191660001916815260200180602001828103825260098152602001807f6e756d546f6b656e730000000000000000000000000000000000000000000000815250602001935050505060206040518083038186803b158015611e2457600080fd5b505af4158015611e38573d6000803e3d6000fd5b505050506040513d6020811015611e4e57600080fd5b8101908080519060200190929190505050905092915050565b6000600473__AttributeStore________________________6350389f5c9091611e9186866115c4565b6040518363ffffffff167c0100000000000000000000000000000000000000000000000000000000028152600401808381526020018260001916600019168152602001806020018281038252600a8152602001807f636f6d6d69744861736800000000000000000000000000000000000000000000815250602001935050505060206040518083038186803b158015611f2957600080fd5b505af4158015611f3d573d6000803e3d6000fd5b505050506040513d6020811015611f5357600080fd5b8101908080519060200190929190505050600102905092915050565b60008142119050919050565b6000611f8633610d0d565b600260003373ffffffffffffffffffffffffffffffffffffffff1673ffffffffffffffffffffffffffffffffffffffff16815260200190815260200160002054039050818110151515611fd857600080fd5b600560009054906101000a900473ffffffffffffffffffffffffffffffffffffffff1673ffffffffffffffffffffffffffffffffffffffff1663a9059cbb33846040518363ffffffff167c0100000000000000000000000000000000000000000000000000000000028152600401808373ffffffffffffffffffffffffffffffffffffffff1673ffffffffffffffffffffffffffffffffffffffff16815260200182815260200192505050602060405180830381600087803b15801561209d57600080fd5b505af11580156120b1573d6000803e3d6000fd5b505050506040513d60208110156120c757600080fd5b810190808051906020019092919050505015156120e357600080fd5b81600260003373ffffffffffffffffffffffffffffffffffffffff1673ffffffffffffffffffffffffffffffffffffffff168152602001908152602001600020600082825403925050819055507f2c88837e03c4eee367d64fb379bbf7dad76a371c52622230bcf8b79728b9c5323383604051808373ffffffffffffffffffffffffffffffffffffffff1673ffffffffffffffffffffffffffffffffffffffff1681526020018281526020019250505060405180910390a15050565b60006121aa82611432565b15156121b557600080fd5b6121d46001600084815260200190815260200160002060010154611f6f565b9050919050565b600560009054906101000a900473ffffffffffffffffffffffffffffffffffffffff1681565b60a060405190810160405280600081526020016000815260200160008152602001600081526020016000815250905600a165627a7a72305820ebfab3c34dee23358512a10e2fcf16b1513efa12f45349e2cee501de0a9400a50029",
  "source": "pragma solidity ^0.4.8;\nimport \"tokens/eip20/EIP20.sol\";\nimport \"dll/DLL.sol\";\nimport \"attrstore/AttributeStore.sol\";\n\n/**\n@title Partial-Lock-Commit-Reveal Voting scheme with ERC20 tokens \n@author Team: Aspyn Palatnick, Cem Ozer, Yorke Rhodes\n*/\ncontract PLCRVoting {\n\n    // ============\n    // EVENTS:\n    // ============\n\n    event VoteCommitted(address voter, uint pollID, uint numTokens);\n    event VoteRevealed(address voter, uint pollID, uint numTokens, uint choice);\n    event PollCreated(uint voteQuorum, uint commitDuration, uint revealDuration, uint pollID);\n    event VotingRightsGranted(address voter, uint numTokens);\n    event VotingRightsWithdrawn(address voter, uint numTokens);\n\n    // ============\n    // DATA STRUCTURES:\n    // ============\n\n    using AttributeStore for AttributeStore.Data;\n    using DLL for DLL.Data;\n\n    struct Poll {\n        uint commitEndDate;     /// expiration date of commit period for poll\n        uint revealEndDate;     /// expiration date of reveal period for poll\n        uint voteQuorum;\t    /// number of votes required for a proposal to pass\n        uint votesFor;\t\t    /// tally of votes supporting proposal\n        uint votesAgainst;      /// tally of votes countering proposal\n    }\n    \n    // ============\n    // STATE VARIABLES:\n    // ============\n\n    uint constant public INITIAL_POLL_NONCE = 0;\n    uint public pollNonce;\n\n    mapping(uint => Poll) public pollMap; // maps pollID to Poll struct\n    mapping(address => uint) public voteTokenBalance; // maps user's address to voteToken balance\n\n    mapping(address => DLL.Data) dllMap;\n    AttributeStore.Data store;\n\n    EIP20 public token;\n\n    // ============\n    // CONSTRUCTOR:\n    // ============\n\n    /**\n    @dev Initializes voteQuorum, commitDuration, revealDuration, and pollNonce in addition to token contract and trusted mapping\n    @param _tokenAddr The address where the ERC20 token contract is deployed\n    */\n    function PLCRVoting(address _tokenAddr) public {\n        token = EIP20(_tokenAddr);\n        pollNonce = INITIAL_POLL_NONCE;\n    }\n\n    // ================\n    // TOKEN INTERFACE:\n    // ================\n\n    /**    \n    @notice Loads _numTokens ERC20 tokens into the voting contract for one-to-one voting rights\n    @dev Assumes that msg.sender has approved voting contract to spend on their behalf\n    @param _numTokens The number of votingTokens desired in exchange for ERC20 tokens\n    */\n    function requestVotingRights(uint _numTokens) external {\n        require(token.balanceOf(msg.sender) >= _numTokens);\n        require(token.transferFrom(msg.sender, this, _numTokens));\n        voteTokenBalance[msg.sender] += _numTokens;\n        VotingRightsGranted(msg.sender, _numTokens);\n    }\n\n    /**\n    @notice Withdraw _numTokens ERC20 tokens from the voting contract, revoking these voting rights\n    @param _numTokens The number of ERC20 tokens desired in exchange for voting rights\n    */\n    function withdrawVotingRights(uint _numTokens) external {\n        uint availableTokens = voteTokenBalance[msg.sender] - getLockedTokens(msg.sender);\n        require(availableTokens >= _numTokens);\n        require(token.transfer(msg.sender, _numTokens));\n        voteTokenBalance[msg.sender] -= _numTokens;\n        VotingRightsWithdrawn(msg.sender, _numTokens);\n    }\n\n    /**\n    @dev Unlocks tokens locked in unrevealed vote where poll has ended\n    @param _pollID Integer identifier associated with the target poll\n    */\n    function rescueTokens(uint _pollID) external {\n        require(pollEnded(_pollID));\n        require(!hasBeenRevealed(msg.sender, _pollID));\n\n        dllMap[msg.sender].remove(_pollID);\n    }\n\n    // =================\n    // VOTING INTERFACE:\n    // =================\n\n    /**\n    @notice Commits vote using hash of choice and secret salt to conceal vote until reveal\n    @param _pollID Integer identifier associated with target poll\n    @param _secretHash Commit keccak256 hash of voter's choice and salt (tightly packed in this order)\n    @param _numTokens The number of tokens to be committed towards the target poll\n    @param _prevPollID The ID of the poll that the user has voted the maximum number of tokens in which is still less than or equal to numTokens \n    */\n    function commitVote(uint _pollID, bytes32 _secretHash, uint _numTokens, uint _prevPollID) external {\n        require(commitPeriodActive(_pollID));\n        require(voteTokenBalance[msg.sender] >= _numTokens); // prevent user from overspending\n        require(_pollID != 0);                // prevent user from committing to zero node placeholder\n\n        // TODO: Move all insert validation into the DLL lib\n        // Check if _prevPollID exists\n        require(_prevPollID == 0 || getCommitHash(msg.sender, _prevPollID) != 0);\n\n        uint nextPollID = dllMap[msg.sender].getNext(_prevPollID);\n\n        // if nextPollID is equal to _pollID, _pollID is being updated,\n        nextPollID = (nextPollID == _pollID) ? dllMap[msg.sender].getNext(_pollID) : nextPollID;\n\n        require(validPosition(_prevPollID, nextPollID, msg.sender, _numTokens));\n        dllMap[msg.sender].insert(_prevPollID, _pollID, nextPollID);\n\n        bytes32 UUID = attrUUID(msg.sender, _pollID);\n\n        store.setAttribute(UUID, \"numTokens\", _numTokens);\n        store.setAttribute(UUID, \"commitHash\", uint(_secretHash));\n\n        VoteCommitted(msg.sender, _pollID, _numTokens);\n    }\n\n    /**\n    @dev Compares previous and next poll's committed tokens for sorting purposes\n    @param _prevID Integer identifier associated with previous poll in sorted order\n    @param _nextID Integer identifier associated with next poll in sorted order\n    @param _voter Address of user to check DLL position for\n    @param _numTokens The number of tokens to be committed towards the poll (used for sorting)\n    @return valid Boolean indication of if the specified position maintains the sort\n    */\n    function validPosition(uint _prevID, uint _nextID, address _voter, uint _numTokens) public constant returns (bool valid) {\n        bool prevValid = (_numTokens >= getNumTokens(_voter, _prevID));\n        // if next is zero node, _numTokens does not need to be greater\n        bool nextValid = (_numTokens <= getNumTokens(_voter, _nextID) || _nextID == 0); \n        return prevValid && nextValid;\n    }\n\n    /**\n    @notice Reveals vote with choice and secret salt used in generating commitHash to attribute committed tokens\n    @param _pollID Integer identifier associated with target poll\n    @param _voteOption Vote choice used to generate commitHash for associated poll\n    @param _salt Secret number used to generate commitHash for associated poll\n    */\n    function revealVote(uint _pollID, uint _voteOption, uint _salt) external {\n        // Make sure the reveal period is active\n        require(revealPeriodActive(_pollID));\n        require(!hasBeenRevealed(msg.sender, _pollID));                        // prevent user from revealing multiple times\n        require(keccak256(_voteOption, _salt) == getCommitHash(msg.sender, _pollID)); // compare resultant hash from inputs to original commitHash\n\n        uint numTokens = getNumTokens(msg.sender, _pollID); \n\n        if (_voteOption == 1) // apply numTokens to appropriate poll choice\n            pollMap[_pollID].votesFor += numTokens;\n        else\n            pollMap[_pollID].votesAgainst += numTokens;\n        \n        dllMap[msg.sender].remove(_pollID); // remove the node referring to this vote upon reveal\n\n        VoteRevealed(msg.sender, _pollID, numTokens, _voteOption);\n    }\n\n    /**\n    @param _pollID Integer identifier associated with target poll\n    @param _salt Arbitrarily chosen integer used to generate secretHash\n    @return correctVotes Number of tokens voted for winning option\n    */\n    function getNumPassingTokens(address _voter, uint _pollID, uint _salt) public constant returns (uint correctVotes) {\n        require(pollEnded(_pollID));\n        require(hasBeenRevealed(_voter, _pollID));\n\n        uint winningChoice = isPassed(_pollID) ? 1 : 0;\n        bytes32 winnerHash = keccak256(winningChoice, _salt);\n        bytes32 commitHash = getCommitHash(_voter, _pollID);\n\n        require(winnerHash == commitHash);\n\n        return getNumTokens(_voter, _pollID);\n    }\n\n    // ==================\n    // POLLING INTERFACE:\n    // ================== \n\n    /**\n    @dev Initiates a poll with canonical configured parameters at pollID emitted by PollCreated event\n    @param _voteQuorum Type of majority (out of 100) that is necessary for poll to be successful\n    @param _commitDuration Length of desired commit period in seconds\n    @param _revealDuration Length of desired reveal period in seconds\n    */\n    function startPoll(uint _voteQuorum, uint _commitDuration, uint _revealDuration) public returns (uint pollID) {\n        pollNonce = pollNonce + 1;\n\n        pollMap[pollNonce] = Poll({\n            voteQuorum: _voteQuorum,\n            commitEndDate: block.timestamp + _commitDuration,\n            revealEndDate: block.timestamp + _commitDuration + _revealDuration,\n            votesFor: 0,\n            votesAgainst: 0\n        });\n\n        PollCreated(_voteQuorum, _commitDuration, _revealDuration, pollNonce);\n        return pollNonce;\n    }\n \n    /**\n    @notice Determines if proposal has passed\n    @dev Check if votesFor out of totalVotes exceeds votesQuorum (requires pollEnded)\n    @param _pollID Integer identifier associated with target poll\n    */\n    function isPassed(uint _pollID) constant public returns (bool passed) {\n        require(pollEnded(_pollID));\n\n        Poll memory poll = pollMap[_pollID];\n        return (100 * poll.votesFor) > (poll.voteQuorum * (poll.votesFor + poll.votesAgainst));\n    }\n\n    // ----------------\n    // POLLING HELPERS:\n    // ----------------\n\n    /**\n    @dev Gets the total winning votes for reward distribution purposes\n    @param _pollID Integer identifier associated with target poll\n    @return Total number of votes committed to the winning option for specified poll\n    */\n    function getTotalNumberOfTokensForWinningOption(uint _pollID) constant public returns (uint numTokens) {\n        require(pollEnded(_pollID));\n\n        if (isPassed(_pollID))\n            return pollMap[_pollID].votesFor;\n        else\n            return pollMap[_pollID].votesAgainst;\n    }\n\n    /**\n    @notice Determines if poll is over\n    @dev Checks isExpired for specified poll's revealEndDate\n    @return Boolean indication of whether polling period is over\n    */\n    function pollEnded(uint _pollID) constant public returns (bool ended) {\n        require(pollExists(_pollID));\n\n        return isExpired(pollMap[_pollID].revealEndDate);\n    }\n\n    /**\n    @notice Checks if the commit period is still active for the specified poll\n    @dev Checks isExpired for the specified poll's commitEndDate\n    @param _pollID Integer identifier associated with target poll\n    @return Boolean indication of isCommitPeriodActive for target poll\n    */\n    function commitPeriodActive(uint _pollID) constant public returns (bool active) {\n        require(pollExists(_pollID));\n\n        return !isExpired(pollMap[_pollID].commitEndDate);\n    }\n\n    /**\n    @notice Checks if the reveal period is still active for the specified poll\n    @dev Checks isExpired for the specified poll's revealEndDate\n    @param _pollID Integer identifier associated with target poll\n    */\n    function revealPeriodActive(uint _pollID) constant public returns (bool active) {\n        require(pollExists(_pollID));\n\n        return !isExpired(pollMap[_pollID].revealEndDate) && !commitPeriodActive(_pollID);\n    }\n\n    /**\n    @dev Checks if user has already revealed for specified poll\n    @param _voter Address of user to check against\n    @param _pollID Integer identifier associated with target poll\n    @return Boolean indication of whether user has already revealed\n    */\n    function hasBeenRevealed(address _voter, uint _pollID) constant public returns (bool revealed) {\n        require(pollExists(_pollID));\n\n        return !dllMap[_voter].contains(_pollID);\n    }\n\n    /**\n    @dev Checks if a poll exists, throws if the provided poll is in an impossible state\n    @param _pollID The pollID whose existance is to be evaluated.\n    @return Boolean Indicates whether a poll exists for the provided pollID\n    */\n    function pollExists(uint _pollID) constant public returns (bool exists) {\n        uint commitEndDate = pollMap[_pollID].commitEndDate;\n        uint revealEndDate = pollMap[_pollID].revealEndDate;\n\n        assert(!(commitEndDate == 0 && revealEndDate != 0));\n        assert(!(commitEndDate != 0 && revealEndDate == 0));\n\n        if(commitEndDate == 0 || revealEndDate == 0) { return false; }\n        return true;\n    }\n\n    // ---------------------------\n    // DOUBLE-LINKED-LIST HELPERS:\n    // ---------------------------\n\n    /**\n    @dev Gets the bytes32 commitHash property of target poll\n    @param _voter Address of user to check against\n    @param _pollID Integer identifier associated with target poll\n    @return Bytes32 hash property attached to target poll \n    */\n    function getCommitHash(address _voter, uint _pollID) constant public returns (bytes32 commitHash) { \n        return bytes32(store.getAttribute(attrUUID(_voter, _pollID), \"commitHash\"));    \n    } \n\n    /**\n    @dev Wrapper for getAttribute with attrName=\"numTokens\"\n    @param _voter Address of user to check against\n    @param _pollID Integer identifier associated with target poll\n    @return Number of tokens committed to poll in sorted poll-linked-list\n    */\n    function getNumTokens(address _voter, uint _pollID) constant public returns (uint numTokens) {\n        return store.getAttribute(attrUUID(_voter, _pollID), \"numTokens\");\n    }\n\n    /**\n    @dev Gets top element of sorted poll-linked-list\n    @param _voter Address of user to check against\n    @return Integer identifier to poll with maximum number of tokens committed to it\n    */\n    function getLastNode(address _voter) constant public returns (uint pollID) {\n        return dllMap[_voter].getPrev(0);\n    }\n\n    /**\n    @dev Gets the numTokens property of getLastNode\n    @param _voter Address of user to check against\n    @return Maximum number of tokens committed in poll specified \n    */\n    function getLockedTokens(address _voter) constant public returns (uint numTokens) {\n        return getNumTokens(_voter, getLastNode(_voter));\n    }\n\n    /**\n    @dev Gets the prevNode a new node should be inserted after given the sort factor\n    @param _voter The voter whose DLL will be searched\n    @param _numTokens The value for the numTokens attribute in the node to be inserted\n    @return the node which the propoded node should be inserted after\n    */\n    function getInsertPointForNumTokens(address _voter, uint _numTokens)\n    constant public returns (uint prevNode) {\n      uint nodeID = getLastNode(_voter);\n      uint tokensInNode = getNumTokens(_voter, nodeID);\n\n      while(tokensInNode != 0) {\n        tokensInNode = getNumTokens(_voter, nodeID);\n        if(tokensInNode < _numTokens) {\n          return nodeID;\n        }\n        nodeID = dllMap[_voter].getPrev(nodeID);\n      }\n\n      return nodeID;\n    }\n \n    // ----------------\n    // GENERAL HELPERS:\n    // ----------------\n\n    /**\n    @dev Checks if an expiration date has been reached\n    @param _terminationDate Integer timestamp of date to compare current timestamp with\n    @return expired Boolean indication of whether the terminationDate has passed\n    */\n    function isExpired(uint _terminationDate) constant public returns (bool expired) {\n        return (block.timestamp > _terminationDate);\n    }\n\n    /**\n    @dev Generates an identifier which associates a user and a poll together\n    @param _pollID Integer identifier associated with target poll\n    @return UUID Hash which is deterministic from _user and _pollID\n    */\n    function attrUUID(address _user, uint _pollID) public pure returns (bytes32 UUID) {\n        return keccak256(_user, _pollID);\n    }\n}\n",
  "sourcePath": "/usr/src/app/delphi-unchained/contracts/deps/PLCRVoting.sol",
  "compiler": {
    "name": "solc",
    "version": "0.4.23+commit.124ca40d.Emscripten.clang"
  },
  "schemaVersion": "2.0.0",
  "updatedAt": "2018-05-01T06:02:37.041Z"
}